S0130000546573744D4350343135312E73726563C6
S113000045C000004BC0000049C0000047C00000CC
S113001045C0000043C0000041C000003FC00000D4
S11300203DC000003BC0000039C0000037C00000E4
S113003035C0000033C0000031C000002FC00000F4
S11300402DC000002BC0000029C0000027C0000004
S113005025C0000023C0000021C000001FC0000014
S11300601DC000001BC0000019C0000017C0000024
S113007015C0000013C0000011C000000FC0000034
S11300800DC000000BC0000009C0000011241FBEF9
S1130090CFEFD0E4DEBFCDBF02D031C0B1CF03D0AB
S11300A080E809D0FDCF8AB180618AB98BB18061C3
S11300B08BB90FC00895CF93C82F8BB18F7E8BB9A6
S11300C080E017D08C2F15D08BB180618BB9CF9184
S11300D0089584B1806884B984B1806284B984B19C
S11300E08F7E84B98CB581658CBD8DB581608DBDE5
S11300F008958EBD0DB407FEFDCF8EB50895F89416
S1050100FFCF2B
S9030000FC
