:10000000D4C00000C2C30000EDC00000EBC000007F
:10001000E9C00000E7C0000029C40000E3C0000000
:10002000E1C00000DFC00000DDC00000DBC0000058
:10003000D9C00000D7C00000D5C00000D3C0000068
:10004000D1C00000CFC0000075C30000CBC00000CD
:10005000ABC30000C7C00000C5C00000C3C00000A3
:10006000C1C00000BFC00000F3C00000BBC0000062
:10007000B9C00000B7C00000B5C00000B3C00000A8
:10008000B1C00000AFC00000ADC000004401960147
:1000900096019601960196019601960144019601FA
:1000A00096019601960196019601960146019601E8
:1000B0009601960196019601960196019601960188
:1000C00096019601960196019601960146019601C8
:1000D0009601960196019601960196019601960168
:1000E000960196019601960196019601920196015C
:1000F0009601960196019601960196016F0196016F
:100100009601960196019601960196019601960137
:10011000960196019601960196019601630196015A
:100120009601960196019601960196018101019D25
:100130000100000200008D0203980100000400008D
:100140009D02058E010000060000AE02078201003C
:1001500000080000BF0200000000000102030101CE
:100160000701040203020503010103040405020759
:10017000050103050406070201070105070408003D
:10018000000044504F542052616E67653A00476149
:10019000696E204144433A004144433A0054656D3E
:1001A00070E97261747572653A0011241FBECFEF59
:1001B000D0E4DEBFCDBF11E0A0E0B1E0E4E4F9E0BF
:1001C00000E00BBF02C007900D92AE30B107D9F727
:1001D00021E0AEE0B1E001C01D92A837B207E1F71F
:1001E00090D1AEC30DCF87B18B7F87B987B1877FA1
:1001F00087B987B18F7E87B987B18F7D87B987B17E
:100200008F7B87B988B1846088B988B1886088B9E4
:1002100088B1806188B988B1806288B988B180640A
:1002200088B9E8E6F0E0808184608083EDE6F0E064
:100230008081846080838081886080838081806108
:100240008083808180628083808180648083089540
:100250001F920F920FB60F9211240BB60F922F938D
:100260003F938F939F93AF93BF93EF93FF93E0914F
:10027000B9008E2F90E0FC013897E135F10508F0C8
:1002800055C0EA5BFF4F53C310920E01E0910E017F
:1002900080911201E81770F481E08E0F80930E01B7
:1002A000F0E0ED5EFE4F80818093BB0085E8809397
:1002B000BC0043C080910F01816080930F0184E9ED
:1002C0008093BC003AC0E0910E0181E08E0F8093D4
:1002D0000E01F0E08091BB00ED5EFE4F8083209127
:1002E0000E0130E08091120190E001972817390744
:1002F00024F485EC8093BC0020C085E88093BC008A
:100300001CC0E0910E01F0E08091BB00ED5EFE4F5D
:10031000808380910F01816080930F0184E9809335
:10032000BC000BC085EA8093BC0007C08091B90077
:100330008093000184E08093BC00FF91EF91BF9116
:10034000AF919F918F913F912F910F900BBE0F9086
:100350000FBE0F901F90189582B1816082B900C0C6
:1003600082B18E7F82B90895CF93DF93D82F662311
:1003700021F082B1826082B903C082B18D7F82B9DF
:1003800082B18B7F82B984B18F6084B9C5B1C07FDF
:100390008D2F82958F708C2B85B9DEDFDF70DC2B83
:1003A000D5B9DADFCF60C5B9DF91CF910895882341
:1003B00021F082B1826082B903C082B18D7F82B99F
:1003C00082B1846082B984B1807F84B982B1816056
:1003D00082B900C093B19295907F82B18E7F82B92D
:1003E00000C082B1816082B900C083B18F7022B138
:1003F0002E7F22B9892B089580E0D9DF8823E4F38A
:1004000000C080E0D4CF0895CF93C82FF5DF60E01F
:100410008C2FAADFCF910895611103C08058F4CFCB
:1004200008958054F1CF089581E0EECF0895CF93E1
:10043000C82FE2DFCA3041F4803410F480E401C0F8
:1004400080E08058E1DF03C061E08C2F8DDFCF9129
:100450000895CF93DF93FC0102C0E9DFFE01EF01B5
:10046000219680818111F9CFDF91CF910895CF93AB
:10047000DF93FC0102C0DBDFFE01EF0121968491D6
:100480008111F9CFDF91CF9108951F93CF93DF931F
:10049000182F84B18F6084B981B1826081B981B134
:1004A000846081B981B1816081B980EA9FE0019760
:1004B000F1F785B1826085B985B1816085B94CDF7E
:1004C00080EE94E00197F1F747DFC0E1D0E0CE0184
:1004D0000197F1F741DFCE010197F1F785B18E7FEA
:1004E00085B93ADF2197F1F788E28EDF88E08CDF6B
:1004F0009BDF86E089DF812F87DFDF91CF911F911E
:10050000089571DE8CE0C1DF8FDF85E091E0A1DF2F
:1005100047D07FD080E090E0089590910401992326
:1005200021F01092040182E00895843021F481E0EA
:1005300080930401089582E0089590910301992326
:1005400021F01092030184E00895843029F481E0C1
:100550008093030183E0089584E00895909102015F
:10056000992321F01092020186E00895843029F445
:1005700081E08093020185E0089586E008959091DE
:100580000101992321F01092010188E0089584303F
:1005900029F481E08093010187E0089588E00895BF
:1005A00080E009C0E82FF0E0EE0FFF1FE35EFE4F92
:1005B000118210828F5F8A30A8F31092320110925C
:1005C000310110926601089590E016C08E1313C099
:1005D000F901EE0FFF1FE20FF31FE45AFE4FE49103
:1005E000E61309C0F901EE0FFF1FE20FF31FE35AF4
:1005F000FE4F849108959F5F292F30E0F901EE0F9F
:10060000FF1FE20FF31FE55AFE4FE491E111DECF29
:1006100008955AD17AD181E0809334017894C12C25
:10062000D12CCDE9D1E0EE24E39410E026C0212FB7
:1006300030E0F901EE0FFF1FE35EFE4F0190F08105
:10064000E02D3097C9F0C901880F991FDC01AE5A1F
:10065000BE4F4D915C91DC01A25CBE4F8D919C918F
:100660004817590748F0220F331FD901AE5ABE4F21
:1006700011961C921E9209951F5F1A30C0F280914C
:100680006601882359F010926601E0913101F091E2
:100690003201309719F085E391E00995209751F0E8
:1006A000F894C2DE60E080E0B7DECE01E0DE789450
:1006B000C0E0D0E08091330110923301C114D10425
:1006C00021F0F6010995E82E07C0882329F0682F4C
:1006D0008091340179DFE82E80913401E81609F425
:1006E000A4CFE092340120E016C0EE1213C0FC014A
:1006F000EE0FFF1FEE0FFF1F8E0F9F1FFC01E15D2E
:10070000FE4FC591D4918F5C9E4FFC0105911491D1
:1007100068018BCF2F5F822F90E0FC01EE0FFF1F4F
:10072000EE0FFF1FE80FF91FE25DFE4FE491E111AC
:10073000DCCF7BCF1F920F920FB60F9211240BB616
:100740000F922F933F938F93EF93FF9383E886BD90
:1007500080E00DC0E82FF0E0EE0FFF1FEE5AFE4FD5
:10076000208131812F5F3F4F318320838F5F8A301B
:1007700088F3FF91EF918F913F912F910F900BBED6
:100780000F900FBE0F901F9018951F920F920FB6EB
:100790000F9211248F9381E0809311018F910F901C
:1007A0000FBE0F901F9018951F920F920FB60F92C9
:1007B00011240BB60F922F933F934F935F936F9338
:1007C0007F938F939F93AF93BF93EF93FF93E091AA
:1007D0001001F0E08091C600EB5CFE4F8083E09159
:1007E0001001F0E0EB5CFE4F80818034E1F4E09199
:1007F0001001F0E0EB5CFE4F808180D0E0911001B1
:10080000EF5FE0931001F0E0EB5CFE4F108281E0BF
:1008100080936601109210018DE070D08AE06ED056
:100820008EE36CD010C0E0911001F0E0EB5CFE4F65
:10083000808164D0809110018F5F80931001883097
:1008400010F010921001FF91EF91BF91AF919F9125
:100850008F917F916F915F914F913F912F910F9069
:100860000BBE0F900FBE0F901F9018951F920F9206
:100870000FB60F9211248F9386B1809582FF04C02A
:1008800081E0809333011AC083FF04C082E080932B
:10089000330114C084FF04C083E0809333010EC091
:1008A00085FF04C085E08093330108C086FF04C043
:1008B00084E08093330102C0109233018F910F9036
:1008C0000FBE0F901F90189584B58B7F84BD84B5A3
:1008D000826084BD84B58E7F84BD85B58B7F85BDE8
:1008E00085B5826085BD85B58E7F85BD83E886BD73
:1008F000EEE6F0E080818160808308959091C000F1
:1009000095FFFCCF8093C6000895E0ECF0E0808175
:10091000826080838CE090E09093C5008093C40057
:1009200088E98093C10086E08093C2000895EE0FAD
:10093000FF1F0024001C0BBE0790F691E02D0994C8
:04094000F894FFCF59
:0E094400F8010101014C4344204F4B202100DB
:00000001FF
