:10000000D4C0000096C40000EDC00000EBC00000AA
:10001000E9C00000E7C00000FDC40000E3C000002C
:10002000E1C00000DFC00000DDC00000DBC0000058
:10003000D9C00000D7C00000D5C00000D3C0000068
:10004000D1C00000CFC0000049C40000CBC00000F8
:100050007FC40000C7C00000C5C00000C3C00000CE
:10006000C1C00000BFC000002FC10000BBC0000025
:10007000B9C00000B7C00000B5C00000B3C00000A8
:10008000B1C00000AFC00000ADC000008001D201CF
:10009000D201D201D201D201D201D2018001D2011A
:1000A000D201D201D201D201D201D2018201D20108
:1000B000D201D201D201D201D201D201D201D201A8
:1000C000D201D201D201D201D201D2018201D201E8
:1000D000D201D201D201D201D201D201D201D20188
:1000E000D201D201D201D201D201D201CE01D2017C
:1000F000D201D201D201D201D201D201AB01D2018F
:10010000D201D201D201D201D201D201D201D20157
:10011000D201D201D201D201D201D2019F01D2017A
:10012000D201D201D201D201D201D201BD01019D81
:10013000010000020000CF0203980100000400004B
:100140004603058E010000060000570307820100E8
:100150000008000068030000000000010203010124
:100160000701040203020503010103040405020759
:10017000050103050406070201070105070408003D
:10018000000044504F542052616E67653A00476149
:10019000696E204144433A004144433A0054656D3E
:1001A00070657261747572653A0011241FBECFEFDD
:1001B000D0E4DEBFCDBF11E0A0E0B1E0E8EFFBE0AE
:1001C00000E00BBF02C007900D92AE34B107D9F723
:1001D00021E0AEE4B1E001C01D92AC3BB207E1F713
:1001E000CCD108C50DCF87B18B7F87B987B1877F09
:1001F00087B987B18F7E87B987B18F7D87B987B17E
:100200008F7B87B988B1846088B988B1886088B9E4
:1002100088B1806188B988B1806288B988B180640A
:1002200088B9E8E6F0E0808184608083EDE6F0E064
:100230008081846080838081886080838081806108
:100240008083808180628083808180648083089540
:1002500082E08093B8001092B9008FEF8093BB00CA
:1002600084E08093BC0008958091BC008170089563
:100270001F93CF93DF93EC01162FF6DF8111FDCF93
:1002800010935301888180935401888180FF0DC0B1
:100290000FC0822F90E0FE01E80FF91F3081FC01B2
:1002A000EC5AFE4F30832F5F01C021E0211788F305
:1002B00010924F0188EF8093000185EA8093BC0083
:1002C000DF91CF911F9108951F920F920FB60F9259
:1002D00011240BB60F922F933F938F939F93AF935D
:1002E000BF93EF93FF93E091B9008E2F90E0FC0154
:1002F0003897E135F10508F055C0EA5BFF4F34C48B
:1003000010924E01E0914E0180915301E81770F474
:1003100081E08E0F80934E01F0E0EC5AFE4F808119
:100320008093BB0085E88093BC0043C080914F015F
:10033000816080934F0184E98093BC003AC0E091D2
:100340004E0181E08E0F80934E01F0E08091BB0062
:10035000EC5AFE4F808320914E0130E08091530192
:1003600090E001972817390724F485EC8093BC00AE
:1003700020C085E88093BC001CC0E0914E01F0E0F5
:100380008091BB00EC5AFE4F808380914F018160C9
:1003900080934F0184E98093BC000BC085EA809371
:1003A000BC0007C08091B9008093000184E0809375
:1003B000BC00FF91EF91BF91AF919F918F913F91C1
:1003C0002F910F900BBE0F900FBE0F901F9018959E
:1003D00082B1806282B900C082B18F7D82B90895F6
:1003E000CF93DF93D82F662321F082B1806482B946
:1003F00003C082B18F7B82B982B18F7782B984B119
:100400008F6084B9C5B1C07F8D2F82958F708C2B82
:1004100085B9DEDFDF70DC2BD5B9DADFCF60C5B997
:10042000DF91CF910895882321F082B1806482B951
:1004300003C082B18F7B82B982B1806882B984B1F6
:10044000807F84B982B1806282B900C093B19295F5
:10045000907F82B18F7D82B900C082B1806282B903
:1004600000C083B18F7022B12F7D22B9892B0895EE
:1004700080E0D9DF8823E4F300C080E0D4CF089582
:10048000CF93C82FF5DF60E08C2FAADFCF910895BE
:10049000611103C08058F4CF08958054F1CF0895BE
:1004A00081E0EECF0895CF93C82FE2DFCA3041F448
:1004B000803410F480E401C080E08058E1DF03C0A4
:1004C00061E08C2F8DDFCF910895CF93DF93FC01F6
:1004D00002C0E9DFFE01EF01219680818111F9CF91
:1004E000DF91CF910895CF93DF93FC0102C0DBDF52
:1004F000FE01EF01219684918111F9CFDF91CF9117
:1005000008951F93CF93DF93182F84B18F6084B920
:1005100081B1806481B981B1806881B981B1806223
:1005200081B980EA9FE00197F1F785B1826085B9D2
:1005300085B1816085B94CDF80EE94E00197F1F7D9
:1005400047DFC0E1D0E0CE010197F1F741DFCE01F6
:100550000197F1F785B18E7F85B93ADF2197F1F7E1
:1005600088E28EDF88E08CDF9BDF86E089DF812FE9
:1005700087DFDF91CF911F91089535DE8CE0C1DFD9
:100580008FDF85E091E0A1DFB4D062DE64E670E049
:1005900088E395E0C2D011D180E090E00895EF9219
:1005A000FF920F931F93CF93DF9300D01F92CDB78D
:1005B000DEB7082F8091550170D2182F8091040169
:1005C000882341F055D21F5F10935001109204010F
:1005D00082E052C080915001181709F446C01F3BB9
:1005E000ECF48EE091E09BD24AE050E0BE016F5FF8
:1005F0007F4F812F110F990BC0D291D28DE090E0E7
:1006000087D261E080E044DF82E291E05EDF61E07A
:1006100080E03EDF83E391E058DF27C061E080E0C7
:1006200037DF82E291E051DF61E080E031DFE12EEF
:10063000012E000CFF084AE050E0BE016F5F7F4FC3
:10064000C7019BD242DF8FED2EDF8EE391E03DDFCD
:10065000109350014AE050E0BE016F5F7F4FC70129
:100660008CD25DD28DE090E053D2043021F481E051
:100670008093040101C082E00F900F900F90DF91F2
:10068000CF911F910F91FF90EF90089590910301EA
:10069000992321F01092030184E00895843029F415
:1006A00081E08093030183E0089584E008959091B0
:1006B0000201992321F01092020186E0089584300E
:1006C00029F481E08093020185E0089586E0089591
:1006D00090910101992321F01092010188E0089581
:1006E000843029F481E08093010187E0089588E057
:1006F000089580E009C0E82FF0E0EE0FFF1FE25AF6
:10070000FE4F118210828F5F8A30A8F3109273011E
:10071000109272011092A701089520E030E002C00B
:100720002F5F3F4FF901EE0FFF1FE25AFE4F40814E
:100730005181452B19F02B30310590F32B303105C9
:10074000A8F4A901440F551FFA01E25AFE4F918304
:100750008083FA01E158FE4F71836083FA01ED5600
:10076000FE4F1182108281E0820F08958FEF08956D
:1007700090E016C08E1313C0F901EE0FFF1FE20FB9
:10078000F31FE45AFE4FE491E61309C0F901EE0F9E
:10079000FF1FE20FF31FE35AFE4F849108959F5FFE
:1007A000292F30E0F901EE0FFF1FE20FF31FE55A8A
:1007B000FE4FE491E111DECF089590D1C3D181E0E5
:1007C000809375017894C12CD12CCDE9D1E0EE2431
:1007D000E39410E026C0212F30E0F901EE0FFF1F57
:1007E000E25AFE4F0190F081E02D3097C9F0C90127
:1007F000880F991FDC01AD56BE4F4D915C91DC0115
:10080000A158BE4F8D919C914817590748F0220F6F
:10081000331FD901AD56BE4F11961C921E920995F9
:100820001F5F1A30C0F28091A701882359F01092FF
:10083000A701E0917201F0917301309719F086E7FA
:1008400091E00995209751F0F8942ADE60E080E06D
:100850001FDECE0148DE7894C0E0D0E080917401C4
:1008600010927401C114D10421F0F6010995E82E0B
:1008700007C0882329F0682F8091750179DFE82E61
:1008800080917501E81609F4A4CFE092750120E08B
:1008900016C0EE1213C0FC01EE0FFF1FEE0FFF1F7C
:1008A0008E0F9F1FFC01E15DFE4FC591D4918F5CBF
:1008B0009E4FFC010591149168018BCF2F5F822F11
:1008C00090E0FC01EE0FFF1FEE0FFF1FE80FF91F76
:1008D000E25DFE4FE491E111DCCF7BCF1F920F92DE
:1008E0000FB60F9211240BB60F922F933F938F9355
:1008F000EF93FF9383E886BD80E00DC0E82FF0E022
:10090000EE0FFF1FED56FE4F208131812F5F3F4FCD
:10091000318320838F5F8A3088F3FF91EF918F912D
:100920003F912F910F900BBE0F900FBE0F901F9015
:1009300018951F920F920FB60F9211248F9381E09A
:10094000809352018F910F900FBE0F901F901895BA
:100950001F920F920FB60F9211240BB60F922F9386
:100960003F934F935F936F937F938F939F93AF9337
:10097000BF93EF93FF93E0915101F0E08091C600A7
:10098000EA58FE4F8083E0915101F0E0EA58FE4FB3
:1009900080818034E1F4E0915101F0E0EA58FE4FAB
:1009A0008081B6D0E0915101EF5FE0935101F0E01A
:1009B000EA58FE4F108281E08093A7011092510106
:1009C0008DE0A6D08AE0A4D08EE3A2D010C0E09142
:1009D0005101F0E0EA58FE4F80819AD08091510198
:1009E0008F5F80935101883010F010925101FF9178
:1009F000EF91BF91AF919F918F917F916F915F9197
:100A00004F913F912F910F900BBE0F900FBE0F9003
:100A10001F9018951F920F920FB60F9211248F936B
:100A200086B1809582FF04C081E0809374011AC072
:100A300083FF04C082E08093740114C084FF04C06B
:100A400083E0809374010EC085FF04C085E080932D
:100A5000740108C086FF04C084E08093740102C062
:100A6000109274018F910F900FBE0F901F901895E8
:100A7000CF93DF93C9EBD1E08AE98883198262E0E2
:100A8000CE01F6DB8BE9888362E0CE01F1DBECDBA3
:100A90008111FDCFDF91CF9108951F93CF93DF9305
:100AA00000D000D0CDB7DEB7182F80E491E037D06A
:100AB0004AE050E0BE016F5F7F4F812F012E000C96
:100AC000990B5BD02CD08DE023D0812F0F900F900D
:100AD0000F900F90DF91CF911F91089584B58B7F78
:100AE00084BD84B5826084BD84B58E7F84BD85B5A8
:100AF0008B7F85BD85B5826085BD85B58E7F85BDC3
:100B000083E886BDEEE6F0E0808181608083089511
:100B10009091C00095FFFCCF8093C60008951F936D
:100B2000CF93DF93EC0111E007C08881882319F08F
:100B30002196EEDF01C010E01111F7CFDF91CF91C8
:100B40001F910895E0ECF0E08081826080838CE06A
:100B500090E09093C5008093C40088E98093C10021
:100B600086E08093C2000895EE0FFF1F0024001C52
:100B70000BBE0790F691E02D09944532510518F40B
:100B8000423008F004C0FB011082CB010895BB275E
:100B90004A3031F4992322F4BDE2909581959F4F1C
:100BA00001C0BB27FB015527AA27880F991FAA1F41
:100BB000A41710F0A41B83955051B9F7A05DAA3378
:100BC00008F0A95DA193009779F7B111B193119243
:100BD000CB0100C0DC01FC01672F71917723E1F7A5
:100BE000329704C07C916D9370836291AE17BF07FA
:080BF000C8F30895F894FFCF4B
:100BF800F8010101014C4344204F4B202100766944
:100C0800657754656D70206F766572666C6F773A9C
:100C180020002020202020202020202020202020EC
:100C28002020004F766572666C6F772021004300A4
:0E0C3800544337342056414C55453A200000B5
:00000001FF
