:10000000D2C000000C942609ECC00000EAC0000039
:10001000E8C00000E6C000000C949709E2C00000B0
:10002000E0C00000DEC00000DCC00000DAC000005C
:10003000D8C00000D6C00000D4C00000D2C000006C
:10004000D0C00000CEC000000C94FB08CAC0000065
:100050000C943509C6C00000C4C00000C2C0000036
:10006000C0C00000BEC000005CC30000BAC00000F9
:10007000B8C00000B6C00000B4C00000B2C00000AC
:10008000B0C00000AEC00000ACC00000AE03000471
:10009000000400040004000400040004AE03000493
:1000A000000400040004000400040004B003000481
:1000B0000004000400040004000400040004000420
:1000C000000400040004000400040004B003000461
:1000D0000004000400040004000400040004000400
:1000E000000400040004000400040004FC030004F5
:1000F000000400040004000400040004D903000408
:1001000000040004000400040004000400040004CF
:10011000000400040004000400040004CD030004F3
:10012000000400040004000400040004EB03019B2D
:100130000100000200000405039701000004000014
:100140008605058E010000060000F3050782010008
:1001500000080000900600000000000102030101F9
:100160000701040203020503010103040405020759
:10017000050103050406070201070105070408003D
:1001800000004469676974616C20504F54004761F6
:10019000696E20414443004144430054656D702022
:1001A0004D656E75000011241FBECFEFD0E4DEBF99
:1001B000CDBF11E0A0E0B1E0E2ECF9E100E00BBF5F
:1001C00002C007900D92A638B107D9F721E0A6E842
:1001D000B1E001C01D92A93FB207E1F7FCD30C9436
:1001E000DF0C0ECF8130B1F018F0823029F1089584
:1001F000ECE7F0E08081806180838081886080838B
:1002000080818B7F808380818D7F808380818160EE
:1002100080830895ECE7F0E080818F7E8083808189
:100220008860808380818B7F808380818D7F8083C5
:100230008081816080830895ECE7F0E080818F7E8B
:10024000808380818860808380818B7F80838081B0
:10025000826080838081816080830895ECE7F0E094
:1002600080818F77808380818064808380818F7D8F
:10027000808380E0B7DFEAE7F0E080818F778083DA
:1002800080818460808380818D7F808380818E7F68
:1002900080830895EAE7F0E0808180688083089594
:1002A000EAE7F0E080818F7780830895F3DFEAE763
:1002B000F0E080818064808380917A0086FDFCCFAD
:1002C000EFDF809178009091790090938F01809377
:1002D0008E0108952F923F926F927F928F929F92FC
:1002E000AF92BF92CF92DF92EF92FF920F931F9344
:1002F000CF93DF93CDB7DEB728970FB6F894DEBF64
:100300000FBECDBF4B015C0158874F832E830D83F9
:10031000C22ED12C2FEFC21AD20A3E81373128F0DB
:100320000F2EF7E1CF2ED12CF02D8D81863629F0BE
:10033000863439F0212C312C07C022242394312C0F
:1003400003C022242394312C9D81973619F09734D1
:1003500051F405C06894222421F8312C04C068941B
:10036000222421F8312C20E030E0A901C501B4019C
:100370000E94BC0A882374F4EF81F8853196FA83D1
:10038000E9838DE2EF81F8858083B7FAB094B7F8FE
:10039000B09404C02F8138853A83298320E030E06F
:1003A000A901C501B4010E94BC0A811110C000E07E
:1003B00010E026C020E030E040E251E4C501B40185
:1003C0000E940F0C4B015C010150110902C000E0BA
:1003D00010E020E030E040E85FE3C501B4010E9496
:1003E000BC0A88233CF30CC02DEC3CEC4CEC5DE3E8
:1003F000C501B4010E940F0C4B015C010F5F1F4F40
:1004000020E030E040E251E4C501B4010E940B0C51
:10041000882354F72114310411F0C00ED11E3E81FF
:10042000311107C0C016D10624F42114310409F09B
:10043000680160E070E080E89FE3EE24E394F12C33
:1004400009C02DEC3CEC4CEC5DE30E940F0CEFEF8F
:10045000EE1AFE0AEC14FD04A4F320E030E040E0C4
:100460005FE30E940F0C9B01AC01C501B4010E9427
:10047000580A4B015C0120E030E040E251E40E9468
:100480000B0C88236CF00F5F1F4FFFEFCF1ADF0AB2
:100490000F2E812C912CF0E8AF2EFFE3BF2EF02D14
:1004A0002114310439F111232CF589819A810196A7
:1004B00020E3E981FA812083FE81FF2339F08981DD
:1004C0009A8102962EE2E981FA812183DD2014F4DB
:1004D0000C191D099A8389838FEF9FEF08C020E3D1
:1004E000E981FA81208301973196FA83E98308171D
:1004F0001907ACF3E12CF12C4AC0C501B4010E94EC
:10050000280B69807A80FFEF6F1A7F0A20E3260F9D
:10051000E981FA8120832114310419F4E114F104F2
:1005200031F02114310479F00E151F0561F4FE81BC
:10053000FF2349F069807A8022E0620E711C2EE26E
:10054000E981FA812183072E000C880B990B0E9408
:100550005B0B20E030E040E251E40E940F0C698325
:100560007A838B839C8320E030E040E251E4C50134
:10057000B4010E940F0C29813A814B815C8197D78D
:100580004B015C01FFEFEF1AFF0A7A826982EC14DB
:10059000FD040CF4B2CF232891F50115110579F172
:1005A00089819A8101962D81E981FA812083112325
:1005B0004CF41195019511098DE281833296FA83ED
:1005C000E98302C09A83898388EE93E005C06AE0DC
:1005D00070E00E94720CCB0108171907C4F30CC01D
:1005E00020E3E981FA8120836AE070E00E94720CC6
:1005F000CB013196FA83E983181619068CF38981A9
:100600009A810196E981FA8110822F813885821BB7
:10061000930B28960FB6F894DEBF0FBECDBFDF91C7
:10062000CF911F910F91FF90EF90DF90CF90BF90EF
:10063000AF909F908F907F906F903F902F900895F4
:1006400087B18B7F87B987B1877F87B987B18F7E65
:1006500087B987B18F7D87B987B18F7B87B988B11B
:10066000846088B988B1886088B988B1806188B9A8
:1006700088B1806288B988B1806488B9E8E6F0E022
:10068000808184608083EDE6F0E0808184608083F7
:1006900080818860808380818061808380818062A6
:1006A0008083808180648083089582E08093B80095
:1006B0001092B9008FEF8093BB0084E08093BC0060
:1006C00008958091BC00817008951F93CF93DF93AC
:1006D000EC01162FF6DF8111FDCF10939001888178
:1006E00080939101888180FF0DC00FC0822F90E020
:1006F000FE01E80FF91F3081FC01EF56FE4F3083F9
:100700002F5F01C021E0211788F31092870188EF45
:100710008093000185EA8093BC00DF91CF911F9107
:1007200008951F920F920FB60F9211240BB60F92DD
:100730002F933F938F939F93AF93BF93EF93FF9329
:10074000E091B9008E2F90E0FC013897E135F1057A
:1007500008F056C0EA5BFF4F0C94850C109286019E
:10076000E091860180919001E81770F481E08E0F8E
:1007700080938601F0E0EF56FE4F80818093BB00AE
:1007800085E88093BC0043C080918701816080939D
:10079000870184E98093BC003AC0E091860181E042
:1007A0008E0F80938601F0E08091BB00EF56FE4FE4
:1007B00080832091860130E08091900190E0019744
:1007C0002817390724F485EC8093BC0020C085E805
:1007D0008093BC001CC0E0918601F0E08091BB00DA
:1007E000EF56FE4F8083809187018160809387015F
:1007F00084E98093BC000BC085EA8093BC0007C0ED
:100800008091B9008093000184E08093BC00FF9147
:10081000EF91BF91AF919F918F913F912F910F9049
:100820000BBE0F900FBE0F901F90189582B1806283
:1008300082B900C082B18F7D82B90895CF93DF93D2
:10084000D82F662321F082B1806482B903C082B1BF
:100850008F7B82B982B18F7782B984B18F6084B97E
:10086000C5B1C07F8D2F82958F708C2B85B9DEDF4F
:10087000DF70DC2BD5B9DADFCF60C5B9DF91CF915E
:100880000895882321F082B1806482B903C082B1C7
:100890008F7B82B982B1806882B984B1807F84B94C
:1008A00082B1806282B900C093B19295907F82B18B
:1008B0008F7D82B900C082B1806282B900C083B1ED
:1008C0008F7022B12F7D22B9892B089580E0D9DF66
:1008D0008823E4F300C080E0D4CF0895CF93C82FDD
:1008E000F5DF60E08C2FAADFCF910895611103C07E
:1008F0008058F4CF08958054F1CF089581E0EECF71
:100900000895CF93C82FE2DFCA3041F4803410F449
:1009100080E401C080E08058E1DF03C061E08C2FFB
:100920008DDFCF910895CF93DF93FC0102C0E9DF03
:10093000FE01EF01219680818111F9CFDF91CF91E6
:100940000895CF93DF93FC0102C0DBDFFE01EF01CE
:10095000219684918111F9CFDF91CF9108951F9352
:10096000CF93DF93182F84B18F6084B981B18064F5
:1009700081B981B1806881B981B1806281B980EA31
:100980009FE00197F1F785B1826085B985B18160FB
:1009900085B94CDF80EE94E00197F1F747DFC0E1C5
:1009A000D0E0CE010197F1F741DFCE010197F1F7D9
:1009B00085B18E7F85B93ADF2197F1F788E28EDF26
:1009C00088E08CDF9BDF86E089DF812F87DFDF9186
:1009D000CF911F91089534DE8CE0C1DF8FDF83E17A
:1009E00091E0A1DF13D361DE39DCFAD264E670E076
:1009F0008BED99E01FD364E670E086E591E01AD3B1
:100A000069D380E090E00895EF92FF920F931F93D7
:100A1000CF93DF9300D01F92CDB7DEB7082F809120
:100A20009201DED4182F80910601882399F060E0AE
:100A300080E05CDF8CE191E076DF60E080E056DF13
:100A40008DE291E070DF1F5F10938B011092060121
:100A500082E052C080918B01181709F446C01F3BF9
:100A6000ECF48AE391E0FED44AE050E0BE016F5F0F
:100A70007F4F812F110F990B65D7F4D48DE090E053
:100A8000EAD461E080E032DF8CE191E04CDF61E0AC
:100A900080E02CDF8EE491E046DF27C061E080E05B
:100AA00025DF8CE191E03FDF61E080E01FDFE12E98
:100AB000012E000CFF084AE050E0BE016F5F7F4F3F
:100AC000C70140D730DF8FED1CDF89E591E02BDFD8
:100AD00010938B014AE050E0BE016F5F7F4FC7016A
:100AE00031D7C0D48DE090E0B6D4043021F481E059
:100AF0008093060101C082E00F900F900F90DF916C
:100B0000CF911F910F91FF90EF900895DF92EF9298
:100B1000FF920F931F93CF93DF93CDB7DEB760970C
:100B20000FB6F894DEBF0FBECDBFD82EE0908E0179
:100B3000F0908F0180910501882371F060E080E0E2
:100B4000D5DE8CE191E0EFDE60E080E0CFDE8BE58A
:100B500091E0E9DE109205018091890190918A016E
:100B6000E816F90649F161E080E0C0DE8CE191E031
:100B7000DADE61E080E0BADEB70180E090E099D58E
:100B800020E030E040EA50E44AD620E030E040E89F
:100B90005AE345D606E610E022E030E0AE014F5FB2
:100BA0005F4F98DBCE010196BEDE89E691E0BBDEA9
:100BB000F0928A01E092890184E0D81205C081E0B8
:100BC0008093050183E001C084E060960FB6F8943D
:100BD000DEBF0FBECDBFDF91CF911F910F91FF9070
:100BE000EF90DF900895CF93DF93CDB7DEB72C97CA
:100BF0000FB6F894DEBF0FBECDBF9CE0E7E0F1E09A
:100C0000DE01119601900D929A95E1F79091040101
:100C1000992339F11092040160E080E067DE8CE1F5
:100C200091E081DE60E080E061DE8BE691E07BDEDA
:100C300061E080E05BDE8CE191E075DE61E080E008
:100C400055DE8091880190E0880F991F880F991FC9
:100C500021E030E02C0F3D1F820F931F64DE86E001
:100C600056C0843009F44AC0853011F5809188015E
:100C70008F5F80938801833010F01092880161E0CB
:100C800080E034DE8CE191E04EDE61E080E02EDE3B
:100C90008091880190E0880F991F880F991F21E0AB
:100CA00030E02C0F3D1F820F931F3DDE86E02FC0EA
:100CB000833061F580918801811104C082E08093C6
:100CC000880103C081508093880161E080E00EDEDE
:100CD0008CE191E028DE61E080E008DE809188010F
:100CE00090E0880F991F880F991F21E030E02C0FAA
:100CF0003D1F820F931F17DE86E009C081E08093BD
:100D00000401809188016EDA85E001C086E02C96AE
:100D10000FB6F894DEBF0FBECDBFDF91CF9108951F
:100D2000CF92DF92EF92FF920F931F93CF93DF93B7
:100D3000CDB7DEB760970FB6F894DEBF0FBECDBF5C
:100D400090910301992391F18091010151D160911A
:100D5000010170910201072E000C880B990BABD496
:100D600020E030E04FE753E40BD420E030E44CE1E6
:100D700056E455D56B017C0161E080E0B7DD8CE184
:100D800091E0D1DD61E080E0B1DD06E610E022E037
:100D900030E0AE014F5F5F4FC701B6019BDACE0175
:100DA0000196C1DD1092030188E00BC1843009F483
:100DB00002C1813009F03AC0809101019091020195
:100DC0008F3F910534F401969093020180930101C5
:100DD0000FD16091010170910201072E000C880B68
:100DE000990B69D420E030E04FE753E4C9D320E009
:100DF00030E44CE156E413D56B017C0161E080E006
:100E000075DD8CE191E08FDD61E080E06FDD06E66D
:100E100010E022E030E0AE014F5F5F4FC701B60146
:100E200059DACE0101967FDD88E0CBC0823009F02F
:100E30003AC080910101909102011816190634F40C
:100E400001979093020180930101D2D0609101013A
:100E500070910201072E000C880B990B2CD420E016
:100E600030E04FE753E48CD320E030E44CE156E42B
:100E7000D6D46B017C0161E080E038DD8CE191E04B
:100E800052DD61E080E032DD06E610E022E030E095
:100E9000AE014F5F5F4FC701B6011CDACE0101966C
:100EA00042DD88E08EC0833009F03FC080910101AF
:100EB000909102010A979093020180930101992376
:100EC00024F410920201109201018091010190D04E
:100ED0006091010170910201072E000C880B990BA3
:100EE000EAD320E030E04FE753E44AD320E030E497
:100EF0004CE156E494D46B017C0161E080E0F6DCC7
:100F00008CE191E010DD61E080E0F0DC06E610E0CD
:100F100022E030E0AE014F5F5F4FC701B601DAD982
:100F2000CE01019600DD88E04CC0853009F048C054
:100F300080910101909102010A96909302018093A1
:100F400001018F3F910539F034F08FEF90E09093DD
:100F5000020180930101809101014AD06091010159
:100F600070910201072E000C880B990BA4D320E08E
:100F700030E04FE753E404D320E030E44CE156E4A2
:100F80004ED46B017C0161E080E0B0DC8CE191E04B
:100F9000CADC61E080E0AADC06E610E022E030E096
:100FA000AE014F5F5F4FC701B60194D9CE010196E4
:100FB000BADC88E006C081E08093030187E001C0CD
:100FC00088E060960FB6F894DEBF0FBECDBFDF910C
:100FD000CF911F910F91FF90EF90DF90CF900895E8
:100FE0008AB180618AB98BB180618BB9CEC1089515
:100FF000CF93C82F8BB18F7E8BB980E0D6D18C2F49
:10100000D4D18BB180618BB9CF91089580E009C0B4
:10101000E82FF0E0EE0FFF1FE556FE4F1182108221
:101020008F5F8A30A8F31092B0011092AF01109236
:10103000E401089520E030E002C02F5F3F4FF90146
:10104000EE0FFF1FE556FE4F40815181452B19F0F1
:101050002B30310590F32B303105A8F4A901440F52
:10106000551FFA01E556FE4F91838083FA01E4543F
:10107000FE4F71836083FA01E053FE4F11821082AC
:1010800081E0820F08958FEF089590E016C08E13CF
:1010900013C0F901EE0FFF1FE20FF31FE45AFE4FDA
:1010A000E491E61309C0F901EE0FFF1FE20FF31FF1
:1010B000E35AFE4F849108959F5F292F30E0F90194
:1010C000EE0FFF1FE20FF31FE55AFE4FE491E1110F
:1010D000DECF0895A6D1D9D181E08093B201789472
:1010E000C12CD12CCBE9D1E0EE24E39410E026C052
:1010F000212F30E0F901EE0FFF1FE556FE4F019062
:10110000F081E02D3097C9F0C901880F991FDC01EB
:10111000A053BE4F4D915C91DC01A454BE4F8D9104
:101120009C914817590748F0220F331FD901A0534B
:10113000BE4F11961C921E9209951F5F1A30C0F285
:101140008091E401882359F01092E401E091AF010D
:10115000F091B001309719F083EB91E00995209759
:1011600051F0F894CBDB60E080E0C0DBCE01E9DB3E
:101170007894C0E0D0E08091B1011092B101C11427
:10118000D10421F0F6010995E82E07C0882329F043
:10119000682F8091B20179DFE82E8091B201E816C4
:1011A00009F4A4CFE092B20120E016C0EE1213C001
:1011B000FC01EE0FFF1FEE0FFF1F8E0F9F1FFC01A4
:1011C000E15DFE4FC591D4918F5C9E4FFC0105916E
:1011D000149168018BCF2F5F822F90E0FC01EE0FFE
:1011E000FF1FEE0FFF1FE80FF91FE25DFE4FE491B6
:1011F000E111DCCF7BCF1F920F920FB60F9211241B
:101200000BB60F922F933F938F93EF93FF9383E847
:1012100086BD80E00DC0E82FF0E0EE0FFF1FE05329
:10122000FE4F208131812F5F3F4F318320838F5FBD
:101230008A3088F3FF91EF918F913F912F910F901A
:101240000BBE0F900FBE0F901F9018951F920F921C
:101250000FB60F9211248F9381E080938D018F91AF
:101260000F900FBE0F901F9018951F920F920FB600
:101270000F9211240BB60F922F933F934F935F93CE
:101280006F937F938F939F93AF93BF93EF93FF934E
:10129000E0918C01F0E08091C600ED54FE4F808318
:1012A000E0918C01F0E0ED54FE4F80818034E1F458
:1012B000E0918C01F0E0ED54FE4F8081CCD0E091C4
:1012C0008C01EF5FE0938C01F0E0ED54FE4F108253
:1012D00081E08093E40110928C018DE0BCD08AE023
:1012E000BAD08EE3B8D010C0E0918C01F0E0ED549C
:1012F000FE4F8081B0D080918C018F5F80938C01F4
:10130000883010F010928C01FF91EF91BF91AF9156
:101310009F918F917F916F915F914F913F912F910D
:101320000F900BBE0F900FBE0F901F9018951F923D
:101330000F920FB60F9211248F9386B1809582FF82
:1013400004C081E08093B1011AC083FF04C082E031
:101350008093B10114C084FF04C083E08093B10185
:101360000EC085FF04C085E08093B10108C086FFF0
:1013700004C084E08093B10102C01092B1018F914A
:101380000F900FBE0F901F90189584B1806884B99C
:1013900084B1806284B984B18F7E84B98CB5816553
:1013A0008CBD8DB581608DBD08958EBD0DB407FED9
:1013B000FDCF8EB50895CF93DF93C6EFD1E08AE9D4
:1013C0008883198262E0CE0180D98BE9888362E04C
:1013D000CE017BD976D98111FDCFDF91CF910895D0
:1013E0001F93CF93DF9300D000D0CDB7DEB7182F77
:1013F00088E791E037D04AE050E0BE016F5F7F4F51
:10140000812F012E000C990B9DD22CD08DE023D082
:10141000812F0F900F900F900F90DF91CF911F9120
:10142000089584B58B7F84BD84B5826084BD84B506
:101430008E7F84BD85B58B7F85BD85B5826085BD7A
:1014400085B58E7F85BD83E886BDEEE6F0E08081C0
:101450008160808308959091C00095FFFCCF8093B8
:10146000C60008951F93CF93DF93EC0111E007C0EE
:101470008881882319F02196EEDF01C010E0111158
:10148000F7CFDF91CF911F910895E0ECF0E08081DC
:10149000826080838CE090E09093C5008093C400CC
:1014A00088E98093C10086E08093C2000895505877
:1014B000BB27AA270ED075C166D130F06BD120F0C2
:1014C00031F49F3F11F41EF45BC10EF4E095E7FB8D
:1014D00051C1E92F77D180F3BA17620773078407E8
:1014E000950718F071F49EF58FC10EF4E0950B2E60
:1014F000BA2FA02D0B01B90190010C01CA01A00166
:101500001124FF27591B99F0593F50F4503E68F1C0
:101510001A16F040A22F232F342F4427585FF3CF01
:10152000469537952795A795F0405395C9F77EF4D2
:101530001F16BA0B620B730B840BBAF09150A1F01B
:10154000FF0FBB1F661F771F881FC2F70EC0BA0FA1
:10155000621F731F841F48F4879577956795B79529
:10156000F7959E3F08F0B3CF9395880F08F0992721
:10157000EE0F979587950895D9D008F481E00895E6
:101580000CD00FC107D140F0FED030F021F45F3F06
:1015900019F0F0C0511139C1F3C014D198F3992357
:1015A000C9F35523B1F3951B550BBB27AA27621727
:1015B0007307840738F09F5F5F4F220F331F441F6C
:1015C000AA1FA9F333D00E2E3AF0E0E830D09150A4
:1015D0005040E695001CCAF729D0FE2F27D0660F91
:1015E000771F881FBB1F261737074807AB07B0E8D0
:1015F00009F0BB0B802DBF01FF2793585F4F2AF0E6
:101600009E3F510568F0B6C000C15F3FECF3983EC5
:10161000DCF3869577956795B795F7959F5FC9F742
:10162000880F911D9695879597F90895E1E0660FCB
:10163000771F881FBB1F621773078407BA0720F044
:10164000621B730B840BBA0BEE1F88F7E0950895AD
:1016500004D06894B111D9C00895BCD088F09F57C8
:1016600090F0B92F9927B751A0F0D1F0660F771FEE
:10167000881F991F1AF0BA95C9F712C0B13081F0CE
:10168000C3D0B1E00895C0C0672F782F8827B85F16
:1016900039F0B93FCCF3869577956795B395D9F72F
:1016A0003EF490958095709561957F4F8F4F9F4F39
:1016B0000895E89409C097FB3EF490958095709545
:1016C00061957F4F8F4F9F4F9923A9F0F92F96E98E
:1016D000BB279395F695879577956795B795F11103
:1016E000F8CFFAF4BB0F11F460FF1BC06F5F7F4FA0
:1016F0008F4F9F4F16C0882311F096E911C07723B2
:1017000021F09EE8872F762F05C0662371F096E8BA
:10171000862F70E060E02AF09A95660F771F881F89
:10172000DAF7880F9695879597F90895990F00082D
:10173000550FAA0BE0E8FEEF16161706E807F907A3
:10174000C0F012161306E407F50798F0621B730B3E
:10175000840B950B39F40A2661F0232B242B252BBF
:1017600021F408950A2609F4A140A6958FEF811D62
:10177000811D089597F99F6780E870E060E0089503
:101780009FEF80EC089500240A9416161706180699
:101790000906089500240A94121613061406050675
:1017A0000895092E0394000C11F4882352F0BB0F06
:1017B00040F4BF2B11F460FF04C06F5F7F4F8F4F69
:1017C0009F4F089557FD9058440F551F59F05F3FA4
:1017D00071F04795880F97FB991F61F09F3F79F053
:1017E00087950895121613061406551FF2CF4695D5
:1017F000F1DF08C0161617061806991FF1CF869557
:101800007105610508940895E894BB27662777273A
:10181000CB0197F908958ADF08F48FEF08950BD074
:10182000C0CFB1DF28F0B6DF18F0952309F0A2CFC2
:10183000A7CF1124EACFC6DFA0F3959FD1F3950F70
:1018400050E0551F629FF001729FBB27F00DB11D44
:10185000639FAA27F00DB11DAA1F649F6627B00DD4
:10186000A11D661F829F2227B00DA11D621F739FBD
:10187000B00DA11D621F839FA00D611D221F749FCB
:101880003327A00D611D231F849F600D211D822F12
:10189000762F6A2F11249F5750408AF0E1F0882359
:1018A0004AF0EE0FFF1FBB1F661F771F881F915066
:1018B0005040A9F79E3F510570F05CCFA6CF5F3F27
:1018C000ECF3983EDCF3869577956795B795F79599
:1018D000E7959F5FC1F7FE2B880F911D9695879521
:1018E00097F9089597FB072E16F4009406D077FD1C
:1018F00008D014D007FC05D03EF4909581959F4FF9
:101900000895709561957F4F0895EE0FFF1F002495
:10191000001C0BBE0790F691E02D0994AA1BBB1B7F
:1019200051E107C0AA1FBB1FA617B70710F0A61BDF
:10193000B70B881F991F5A95A9F780959095BC0100
:10194000CD0108954532510518F4423008F004C025
:10195000FB011082CB010895BB274A3031F4992353
:1019600022F4BDE2909581959F4F01C0BB27FB01FA
:101970005527AA27880F991FAA1FA41710F0A41B88
:1019800083955051B9F7A05DAA3308F0A95DA193E2
:10199000009779F7B111B1931192CB0100C0DC012E
:1019A000FC01672F71917723E1F7329704C07C9196
:1019B0006D9370836291AE17BF07C8F30895F894D2
:0219C000FFCF57
:1019C200F8800001010101583100005831300058FF
:1019D2003230304C4344204F4B2021002020202025
:1019E2002020202020202020202020200054656D4F
:1019F20070657261747572653A00766965775465CF
:101A02006D70206F766572666C6F773A20004F7644
:101A12006572666C6F772021004300444946462078
:101A2200566F6C746167653A00560053656C656366
:101A320074204761696E3A00544337342056414C52
:061A420055453A200000AA
:00000001FF
