:10000000D4C00000ABC70000EEC00000ECC0000090
:10001000EAC00000E8C000000C941F08E4C0000023
:10002000E2C00000E0C00000DEC00000DCC0000054
:10003000DAC00000D8C00000D6C00000D4C0000064
:10004000D2C00000D0C000005EC70000CCC00000DD
:1000500094C70000C8C00000C6C00000C4C00000B3
:10006000C2C00000C0C00000E1C20000BCC000006F
:10007000BAC00000B8C00000B6C00000B4C00000A4
:10008000B2C00000B0C00000AEC000003203840364
:10009000840384038403840384038403320384037A
:1000A0008403840384038403840384033403840368
:1000B0008403840384038403840384038403840308
:1000C0008403840384038403840384033403840348
:1000D00084038403840384038403840384038403E8
:1000E00084038403840384038403840380038403DC
:1000F0008403840384038403840384035D038403EF
:1001000084038403840384038403840384038403B7
:1001100084038403840384038403840351038403DA
:100120008403840384038403840384036F03019D95
:100130000100000200008204039801000004000096
:10014000F004058E01000006000001050782010091
:100150000008000012050000000000010203010178
:100160000701040203020503010103040405020759
:10017000050103050406070201070105070408003D
:10018000000044504F542052616E67653A00476149
:10019000696E204144433A004144433A0054656D3E
:1001A00070657261747572653A0011241FBECFEFDD
:1001B000D0E4DEBFCDBF11E0A0E0B1E0E2EDF6E1BA
:1001C00000E00BBF02C007900D92AA33B107D9F728
:1001D00021E0AAE3B1E001C01D92A83AB207E1F71D
:1001E0007ED30C94670B0CCF2F923F926F927F922D
:1001F0008F929F92AF92BF92CF92DF92EF92FF9237
:100200000F931F93CF93DF93CDB7DEB728970FB629
:10021000F894DEBF0FBECDBF4B015C0158874F8302
:100220002E830D83C22ED12C2FEFC21AD20A3E810B
:10023000373128F00F2EF7E1CF2ED12CF02D8D8104
:10024000863629F0863439F0212C312C07C022243F
:100250002394312C03C022242394312C9D81973682
:1002600019F0973451F405C06894222421F8312CF8
:1002700004C06894222421F8312C20E030E0A90148
:10028000C501B4010E944409882374F4EF81F88504
:100290003196FA83E9838DE2EF81F8858083B7FA9E
:1002A000B094B7F8B09404C02F8138853A8329837D
:1002B00020E030E0A901C501B401E6D7811110C0EA
:1002C00000E010E025C020E030E040E251E4C5014C
:1002D000B4010E94970A4B015C010150110902C050
:1002E00000E010E020E030E040E85FE3C501B40149
:1002F000CBD7882344F30CC02DEC3CEC4CEC5DE3F5
:10030000C501B4010E94970A4B015C010F5F1F4FAA
:1003100020E030E040E251E4C501B4010E94930ABC
:10032000882354F72114310411F0C00ED11E3E81F0
:10033000311107C0C016D10624F42114310409F08C
:10034000680160E070E080E89FE3EE24E394F12C24
:1003500009C02DEC3CEC4CEC5DE30E94970AEFEFFA
:10036000EE1AFE0AEC14FD04A4F320E030E040E0B5
:100370005FE30E94970A9B01AC01C501B40120D73D
:100380004B015C0120E030E040E251E40E94930A1E
:1003900088236CF00F5F1F4FFFEFCF1ADF0A0F2E7D
:1003A000812C912CF0E8AF2EFFE3BF2EF02D21140D
:1003B000310439F111232CF589819A81019620E3CA
:1003C000E981FA812083FE81FF2339F089819A81B6
:1003D00002962EE2E981FA812183DD2014F40C19C2
:1003E0001D099A8389838FEF9FEF08C020E3E9817D
:1003F000FA81208301973196FA83E9830817190758
:10040000ACF3E12CF12C48C0C501B401A9D7698037
:100410007A80FFEF6F1A7F0A20E3260FE981FA81C5
:1004200020832114310419F4E114F10431F0211472
:10043000310479F00E151F0561F4FE81FF2349F0A8
:1004400069807A8022E0620E711C2EE2E981FA81D5
:100450002183072E000C880B990BB5D720E030E0E4
:1004600040E251E40E94970A69837A838B839C83DC
:1004700020E030E040E251E4C501B4010E94970A57
:1004800029813A814B815C819AD64B015C01FFEF57
:10049000EF1AFF0A7A826982EC14FD040CF4B4CFDF
:1004A000232891F50115110579F189819A81019629
:1004B0002D81E981FA81208311234CF41195019556
:1004C00011098DE281833296FA83E98302C09A830F
:1004D000898388EE93E005C06AE070E00E94FA0A22
:1004E000CB0108171907C4F30CC020E3E981FA8196
:1004F00020836AE070E00E94FA0ACB013196FA8309
:10050000E983181619068CF389819A810196E9818D
:10051000FA8110822F813885821B930B28960FB6A3
:10052000F894DEBF0FBECDBFDF91CF911F910F9129
:10053000FF90EF90DF90CF90BF90AF909F908F9003
:100540007F906F903F902F90089587B18B7F87B9F0
:1005500087B1877F87B987B18F7E87B987B18F7D54
:1005600087B987B18F7B87B988B1846088B988B132
:10057000886088B988B1806188B988B1806288B99B
:1005800088B1806488B9E8E6F0E080818460808387
:10059000EDE6F0E0808184608083808188608083E4
:1005A000808180618083808180628083808180649B
:1005B0008083089582E08093B8001092B9008FEF95
:1005C0008093BB0084E08093BC0008958091BC00C0
:1005D000817008951F93CF93DF93EC01162FF6DF00
:1005E0008111FDCF10933F01888180934001888164
:1005F00080FF0DC00FC0822F90E0FE01E80FF91FB1
:100600003081FC01E05CFE4F30832F5F01C021E0B0
:10061000211788F310923B0188EF8093000185EA4F
:100620008093BC00DF91CF911F9108951F920F928C
:100630000FB60F9211240BB60F922F933F938F9307
:100640009F93AF93BF93EF93FF93E091B9008E2FE9
:1006500090E0FC013897E135F10508F055C0EA5B00
:10066000FF4FDBC710923A01E0913A0180913F01C0
:10067000E81770F481E08E0F80933A01F0E0E05CBF
:10068000FE4F80818093BB0085E88093BC0043C00F
:1006900080913B01816080933B0184E98093BC00A1
:1006A0003AC0E0913A0181E08E0F80933A01F0E088
:1006B0008091BB00E05CFE4F808320913A0130E0E6
:1006C00080913F0190E001972817390724F485ECC9
:1006D0008093BC0020C085E88093BC001CC0E091E2
:1006E0003A01F0E08091BB00E05CFE4F8083809196
:1006F0003B01816080933B0184E98093BC000BC087
:1007000085EA8093BC0007C08091B9008093000106
:1007100084E08093BC00FF91EF91BF91AF919F91D6
:100720008F913F912F910F900BBE0F900FBE0F90A6
:100730001F90189582B1816082B900C082B18E7F0E
:1007400082B90895CF93DF93D82F662321F082B129
:10075000826082B903C082B18D7F82B982B18B7F02
:1007600082B984B18F6084B9C5B1C07F8D2F829565
:100770008F708C2B85B9DEDFDF70DC2BD5B9DADF2B
:10078000CF60C5B9DF91CF910895882321F082B160
:10079000826082B903C082B18D7F82B982B18460E8
:1007A00082B984B1807F84B982B1816082B900C08E
:1007B00093B19295907F82B18E7F82B900C082B151
:1007C000816082B900C083B18F7022B12E7F22B9BF
:1007D000892B089580E0D9DF8823E4F300C080E00E
:1007E000D4CF0895CF93C82FF5DF60E08C2FAADF18
:1007F000CF910895611103C08058F4CF08958054BB
:10080000F1CF089581E0EECF0895CF93C82FE2DFB6
:10081000CA3041F4803410F480E401C080E0805894
:10082000E1DF03C061E08C2F8DDFCF910895CF937E
:10083000DF93FC0102C0E9DFFE01EF012196808118
:100840008111F9CFDF91CF910895CF93DF93FC0110
:1008500002C0DBDFFE01EF01219684918111F9CF07
:10086000DF91CF9108951F93CF93DF93182F84B119
:100870008F6084B981B1826081B981B1846081B9AE
:1008800081B1816081B980EA9FE00197F1F785B17C
:10089000826085B985B1816085B94CDF80EE94E0D6
:1008A0000197F1F747DFC0E1D0E0CE010197F1F702
:1008B00041DFCE010197F1F785B18E7F85B93ADF2F
:1008C0002197F1F788E28EDF88E08CDF9BDF86E0FE
:1008D00089DF812F87DFDF91CF911F91089535DE6A
:1008E0008CE0C1DF8FDF87E091E0A1DF17D262DE0D
:1008F00064E670E083E698E025D2FAD173D280E016
:1009000090E00895EF92FF920F931F93CF93DF93A0
:1009100000D01F92CDB7DEB7082F80914101E8D3F8
:10092000182F80910601882341F0CDD31F5F1093CB
:100930003C011092060182E049C080913C011817E9
:1009400009F43DC01F3BA4F480E191E013D48DE095
:1009500090E009D44AE050E0BE016F5F7F4F812FE5
:10096000110F990B77D606D48DE090E0FCD327C009
:1009700061E080E03FDF89E191E059DF61E080E004
:1009800039DFE12E012E000CFF084AE050E0BE01E5
:100990006F5F7F4FC7015ED64ADF8FED36DF8AE299
:1009A00091E045DF10933C014AE050E0BE016F5FEB
:1009B0007F4FC7014FD6DED38DE090E0D4D3043013
:1009C00021F481E08093060101C082E00F900F9036
:1009D0000F90DF91CF911F910F91FF90EF900895AD
:1009E00090910501992321F01092050184E008956A
:1009F000843029F481E08093050183E0089584E048
:100A0000089590910401992321F01092040186E049
:100A10000895843029F481E08093040185E00895ED
:100A200086E00895CF92DF92EF92FF920F931F938B
:100A3000CF93DF93CDB7DEB760970FB6F894DEBFE4
:100A40000FBECDBF909103019923A1F180910101C7
:100A50009091020155D16091010170910201072E20
:100A6000000C880B990BAFD420E030E04FE753E443
:100A70000FD420E030E44CE156E459D56B017C0101
:100A800061E080E0B7DE89E191E0D1DE61E080E005
:100A9000B1DE06E610E022E030E0AE014F5F5F4FCE
:100AA000C701B601A1DBCE010196C1DE10920301A0
:100AB00088E00FC1843009F406C1813009F03AC0E2
:100AC00080910101909102018F3F910534F40196CC
:100AD000909302018093010113D160910101709103
:100AE0000201072E000C880B990B6DD420E030E03A
:100AF0004FE753E4CDD320E030E44CE156E417D582
:100B00006B017C0161E080E075DE89E191E08FDEC0
:100B100061E080E06FDE06E610E022E030E0AE014A
:100B20004F5F5F4FC701B6015FDBCE0101967FDEED
:100B300088E0CFC0823009F03AC0809101019091E5
:100B400002011816190634F401979093020180935C
:100B50000101D6D06091010170910201072E000CB5
:100B6000880B990B30D420E030E04FE753E490D36A
:100B700020E030E44CE156E4DAD46B017C0161E022
:100B800080E038DE89E191E052DE61E080E032DE33
:100B900006E610E022E030E0AE014F5F5F4FC70194
:100BA000B60122DBCE01019642DE88E092C083309E
:100BB00009F041C080910101909102010A97909340
:100BC000020180930101992324F4109202011092F2
:100BD0000101809101019091020192D06091010187
:100BE00070910201072E000C880B990BECD320E0CA
:100BF00030E04FE753E44CD320E030E44CE156E4DE
:100C000096D46B017C0161E080E0F4DD89E191E044
:100C10000EDE61E080E0EEDD06E610E022E030E08E
:100C2000AE014F5F5F4FC701B601DEDACE0101961C
:100C3000FEDD88E04EC0853009F04AC08091010198
:100C4000909102010A9690930201809301018F3FD7
:100C5000910539F034F08FEF90E09093020180938A
:100C6000010180910101909102014AD0609101013E
:100C700070910201072E000C880B990BA4D320E081
:100C800030E04FE753E404D320E030E44CE156E495
:100C90004ED46B017C0161E080E0ACDD89E191E044
:100CA000C6DD61E080E0A6DD06E610E022E030E08F
:100CB000AE014F5F5F4FC701B60196DACE010196D4
:100CC000B6DD88E006C081E08093030187E001C0C3
:100CD00088E060960FB6F894DEBF0FBECDBFDF91FF
:100CE000CF911F910F91FF90EF90DF90CF900895DB
:100CF0008AB180618AB98BB180618BB9CEC1089508
:100D0000CF93C82F8BB18F7E8BB980E0D6D18C2F3B
:100D1000D4D18BB180618BB9CF91089580E009C0A7
:100D2000E82FF0E0EE0FFF1FE65BFE4F118210820E
:100D30008F5F8A30A8F310925F0110925E011092CB
:100D40009301089520E030E002C02F5F3F4FF9018A
:100D5000EE0FFF1FE65BFE4F40815181452B19F0DE
:100D60002B30310590F32B303105A8F4A901440F45
:100D7000551FFA01E65BFE4F91838083FA01E55926
:100D8000FE4F71836083FA01E158FE4F1182108299
:100D900081E0820F08958FEF089590E016C08E13C2
:100DA00013C0F901EE0FFF1FE20FF31FE45AFE4FCD
:100DB000E491E61309C0F901EE0FFF1FE20FF31FE4
:100DC000E35AFE4F849108959F5F292F30E0F90187
:100DD000EE0FFF1FE20FF31FE55AFE4FE491E11102
:100DE000DECF0895A6D1D9D181E0809361017894B6
:100DF000C12CD12CCDE9D1E0EE24E39410E026C043
:100E0000212F30E0F901EE0FFF1FE65BFE4F01904E
:100E1000F081E02D3097C9F0C901880F991FDC01DE
:100E2000A158BE4F4D915C91DC01A559BE4F8D91EB
:100E30009C914817590748F0220F331FD901A15838
:100E4000BE4F11961C921E9209951F5F1A30C0F278
:100E500080919301882359F010929301E0915E01F3
:100E6000F0915F01309719F082E691E009952097A3
:100E700051F0F894C7DC60E080E0BCDCCE01E5DC3A
:100E80007894C0E0D0E08091600110926001C114BC
:100E9000D10421F0F6010995E82E07C0882329F036
:100EA000682F8091610179DFE82E80916101E81659
:100EB00009F4A4CFE092610120E016C0EE1213C045
:100EC000FC01EE0FFF1FEE0FFF1F8E0F9F1FFC0197
:100ED000E15DFE4FC591D4918F5C9E4FFC01059161
:100EE000149168018BCF2F5F822F90E0FC01EE0FF1
:100EF000FF1FEE0FFF1FE80FF91FE25DFE4FE491A9
:100F0000E111DCCF7BCF1F920F920FB60F9211240D
:100F10000BB60F922F933F938F93EF93FF9383E83A
:100F200086BD80E00DC0E82FF0E0EE0FFF1FE15816
:100F3000FE4F208131812F5F3F4F318320838F5FB0
:100F40008A3088F3FF91EF918F913F912F910F900D
:100F50000BBE0F900FBE0F901F9018951F920F920F
:100F60000FB60F9211248F9381E080933E018F91F1
:100F70000F900FBE0F901F9018951F920F920FB6F3
:100F80000F9211240BB60F922F933F934F935F93C1
:100F90006F937F938F939F93AF93BF93EF93FF9341
:100FA000E0913D01F0E08091C600EE59FE4F808354
:100FB000E0913D01F0E0EE59FE4F80818034E1F494
:100FC000E0913D01F0E0EE59FE4F8081CCD0E09100
:100FD0003D01EF5FE0933D01F0E0EE59FE4F1082DE
:100FE00081E08093930110923D018DE0BCD08AE0B6
:100FF000BAD08EE3B8D010C0E0913D01F0E0EE59D8
:10100000FE4F8081B0D080913D018F5F80933D0184
:10101000883010F010923D01FF91EF91BF91AF9198
:101020009F918F917F916F915F914F913F912F9100
:101030000F900BBE0F900FBE0F901F9018951F9230
:101040000F920FB60F9211248F9386B1809582FF75
:1010500004C081E0809360011AC083FF04C082E075
:101060008093600114C084FF04C083E0809360011A
:101070000EC085FF04C085E08093600108C086FF34
:1010800004C084E08093600102C0109260018F91DF
:101090000F900FBE0F901F90189584B1806884B98F
:1010A00084B1806284B984B18F7E84B98CB5816546
:1010B0008CBD8DB581608DBD08958EBD0DB407FECC
:1010C000FDCF8EB50895CF93DF93C5EAD1E08AE9CD
:1010D0008883198262E0CE017DDA8BE9888362E041
:1010E000CE0178DA73DA8111FDCFDF91CF910895C7
:1010F0001F93CF93DF9300D000D0CDB7DEB7182F6A
:101100008CE291E037D04AE050E0BE016F5F7F4F44
:10111000812F012E000C990B9DD22CD08DE023D075
:10112000812F0F900F900F900F90DF91CF911F9113
:10113000089584B58B7F84BD84B5826084BD84B5F9
:101140008E7F84BD85B58B7F85BD85B5826085BD6D
:1011500085B58E7F85BD83E886BDEEE6F0E08081B3
:101160008160808308959091C00095FFFCCF8093AB
:10117000C60008951F93CF93DF93EC0111E007C0E1
:101180008881882319F02196EEDF01C010E011114B
:10119000F7CFDF91CF911F910895E0ECF0E08081CF
:1011A000826080838CE090E09093C5008093C400BF
:1011B00088E98093C10086E08093C200089550586A
:1011C000BB27AA270ED075C166D130F06BD120F0B5
:1011D00031F49F3F11F41EF45BC10EF4E095E7FB80
:1011E00051C1E92F77D180F3BA17620773078407DB
:1011F000950718F071F49EF58FC10EF4E0950B2E53
:10120000BA2FA02D0B01B90190010C01CA01A00158
:101210001124FF27591B99F0593F50F4503E68F1B3
:101220001A16F040A22F232F342F4427585FF3CFF4
:10123000469537952795A795F0405395C9F77EF4C5
:101240001F16BA0B620B730B840BBAF09150A1F00E
:10125000FF0FBB1F661F771F881FC2F70EC0BA0F94
:10126000621F731F841F48F4879577956795B7951C
:10127000F7959E3F08F0B3CF9395880F08F0992714
:10128000EE0F979587950895D9D008F481E00895D9
:101290000CD00FC107D140F0FED030F021F45F3FF9
:1012A00019F0F0C0511139C1F3C014D198F399234A
:1012B000C9F35523B1F3951B550BBB27AA2762171A
:1012C0007307840738F09F5F5F4F220F331F441F5F
:1012D000AA1FA9F333D00E2E3AF0E0E830D0915097
:1012E0005040E695001CCAF729D0FE2F27D0660F84
:1012F000771F881FBB1F261737074807AB07B0E8C3
:1013000009F0BB0B802DBF01FF2793585F4F2AF0D8
:101310009E3F510568F0B6C000C15F3FECF3983EB8
:10132000DCF3869577956795B795F7959F5FC9F735
:10133000880F911D9695879597F90895E1E0660FBE
:10134000771F881FBB1F621773078407BA0720F037
:10135000621B730B840BBA0BEE1F88F7E0950895A0
:1013600004D06894B111D9C00895BCD088F09F57BB
:1013700090F0B92F9927B751A0F0D1F0660F771FE1
:10138000881F991F1AF0BA95C9F712C0B13081F0C1
:10139000C3D0B1E00895C0C0672F782F8827B85F09
:1013A00039F0B93FCCF3869577956795B395D9F722
:1013B0003EF490958095709561957F4F8F4F9F4F2C
:1013C0000895E89409C097FB3EF490958095709538
:1013D00061957F4F8F4F9F4F9923A9F0F92F96E981
:1013E000BB279395F695879577956795B795F111F6
:1013F000F8CFFAF4BB0F11F460FF1BC06F5F7F4F93
:101400008F4F9F4F16C0882311F096E911C07723A4
:1014100021F09EE8872F762F05C0662371F096E8AD
:10142000862F70E060E02AF09A95660F771F881F7C
:10143000DAF7880F9695879597F90895990F000820
:10144000550FAA0BE0E8FEEF16161706E807F90796
:10145000C0F012161306E407F50798F0621B730B31
:10146000840B950B39F40A2661F0232B242B252BB2
:1014700021F408950A2609F4A140A6958FEF811D55
:10148000811D089597F99F6780E870E060E00895F6
:101490009FEF80EC089500240A941616170618068C
:1014A0000906089500240A94121613061406050668
:1014B0000895092E0394000C11F4882352F0BB0FF9
:1014C00040F4BF2B11F460FF04C06F5F7F4F8F4F5C
:1014D0009F4F089557FD9058440F551F59F05F3F97
:1014E00071F04795880F97FB991F61F09F3F79F046
:1014F00087950895121613061406551FF2CF4695C8
:10150000F1DF08C0161617061806991FF1CF869549
:101510007105610508940895E894BB27662777272D
:10152000CB0197F908958ADF08F48FEF08950BD067
:10153000C0CFB1DF28F0B6DF18F0952309F0A2CFB5
:10154000A7CF1124EACFC6DFA0F3959FD1F3950F63
:1015500050E0551F629FF001729FBB27F00DB11D37
:10156000639FAA27F00DB11DAA1F649F6627B00DC7
:10157000A11D661F829F2227B00DA11D621F739FB0
:10158000B00DA11D621F839FA00D611D221F749FBE
:101590003327A00D611D231F849F600D211D822F05
:1015A000762F6A2F11249F5750408AF0E1F088234C
:1015B0004AF0EE0FFF1FBB1F661F771F881F915059
:1015C0005040A9F79E3F510570F05CCFA6CF5F3F1A
:1015D000ECF3983EDCF3869577956795B795F7958C
:1015E000E7959F5FC1F7FE2B880F911D9695879514
:1015F00097F9089597FB072E16F4009406D077FD0F
:1016000008D014D007FC05D03EF4909581959F4FEB
:101610000895709561957F4F0895EE0FFF1F002488
:10162000001C0BBE0790F691E02D0994AA1BBB1B72
:1016300051E107C0AA1FBB1FA617B70710F0A61BD2
:10164000B70B881F991F5A95A9F780959095BC01F3
:10165000CD0108954532510518F4423008F004C018
:10166000FB011082CB010895BB274A3031F4992346
:1016700022F4BDE2909581959F4F01C0BB27FB01ED
:101680005527AA27880F991FAA1FA41710F0A41B7B
:1016900083955051B9F7A05DAA3308F0A95DA193D5
:1016A000009779F7B111B1931192CB0100C0DC0121
:1016B000FC01672F71917723E1F7329704C07C9189
:1016C0006D9370836291AE17BF07C8F30895F894C5
:0216D000FFCF4A
:1016D200F88000010101014C4344204F4B202100BE
:1016E2006F766572666C6F770020202020202020A4
:1016F2002020202020202020200043005443373483
:0A1702002056414C55453A200000E6
:00000001FF
